{
  "contractName": "ERC20",
  "abi": [
    {
      "anonymous": false,
      "inputs": [
        {
          "indexed": true,
          "internalType": "address",
          "name": "owner",
          "type": "address"
        },
        {
          "indexed": true,
          "internalType": "address",
          "name": "spender",
          "type": "address"
        },
        {
          "indexed": false,
          "internalType": "uint256",
          "name": "amount",
          "type": "uint256"
        }
      ],
      "name": "Approval",
      "type": "event"
    },
    {
      "anonymous": false,
      "inputs": [
        {
          "indexed": true,
          "internalType": "address",
          "name": "from",
          "type": "address"
        },
        {
          "indexed": true,
          "internalType": "address",
          "name": "to",
          "type": "address"
        },
        {
          "indexed": false,
          "internalType": "uint256",
          "name": "amount",
          "type": "uint256"
        }
      ],
      "name": "Transfer",
      "type": "event"
    },
    {
      "inputs": [
        {
          "internalType": "address",
          "name": "",
          "type": "address"
        },
        {
          "internalType": "address",
          "name": "",
          "type": "address"
        }
      ],
      "name": "allowance",
      "outputs": [
        {
          "internalType": "uint256",
          "name": "",
          "type": "uint256"
        }
      ],
      "stateMutability": "view",
      "type": "function"
    },
    {
      "inputs": [
        {
          "internalType": "address",
          "name": "",
          "type": "address"
        }
      ],
      "name": "balances",
      "outputs": [
        {
          "internalType": "uint256",
          "name": "",
          "type": "uint256"
        }
      ],
      "stateMutability": "view",
      "type": "function"
    },
    {
      "inputs": [],
      "name": "decimals",
      "outputs": [
        {
          "internalType": "uint8",
          "name": "",
          "type": "uint8"
        }
      ],
      "stateMutability": "view",
      "type": "function"
    },
    {
      "inputs": [],
      "name": "name",
      "outputs": [
        {
          "internalType": "string",
          "name": "",
          "type": "string"
        }
      ],
      "stateMutability": "view",
      "type": "function"
    },
    {
      "inputs": [],
      "name": "symbol",
      "outputs": [
        {
          "internalType": "string",
          "name": "",
          "type": "string"
        }
      ],
      "stateMutability": "view",
      "type": "function"
    },
    {
      "inputs": [],
      "name": "totalSupply",
      "outputs": [
        {
          "internalType": "uint256",
          "name": "",
          "type": "uint256"
        }
      ],
      "stateMutability": "view",
      "type": "function"
    },
    {
      "inputs": [
        {
          "internalType": "address",
          "name": "account",
          "type": "address"
        }
      ],
      "name": "balanceOf",
      "outputs": [
        {
          "internalType": "uint256",
          "name": "",
          "type": "uint256"
        }
      ],
      "stateMutability": "view",
      "type": "function"
    },
    {
      "inputs": [
        {
          "internalType": "address",
          "name": "recipient",
          "type": "address"
        },
        {
          "internalType": "uint256",
          "name": "amount",
          "type": "uint256"
        }
      ],
      "name": "transfer",
      "outputs": [
        {
          "internalType": "bool",
          "name": "",
          "type": "bool"
        }
      ],
      "stateMutability": "nonpayable",
      "type": "function"
    },
    {
      "inputs": [
        {
          "internalType": "address",
          "name": "spender",
          "type": "address"
        },
        {
          "internalType": "uint256",
          "name": "amount",
          "type": "uint256"
        }
      ],
      "name": "approve",
      "outputs": [
        {
          "internalType": "bool",
          "name": "",
          "type": "bool"
        }
      ],
      "stateMutability": "nonpayable",
      "type": "function"
    },
    {
      "inputs": [
        {
          "internalType": "address",
          "name": "sender",
          "type": "address"
        },
        {
          "internalType": "address",
          "name": "recipient",
          "type": "address"
        },
        {
          "internalType": "uint256",
          "name": "amount",
          "type": "uint256"
        }
      ],
      "name": "transferFrom",
      "outputs": [
        {
          "internalType": "bool",
          "name": "",
          "type": "bool"
        }
      ],
      "stateMutability": "nonpayable",
      "type": "function"
    },
    {
      "inputs": [
        {
          "internalType": "uint256",
          "name": "amount",
          "type": "uint256"
        }
      ],
      "name": "burn",
      "outputs": [],
      "stateMutability": "nonpayable",
      "type": "function"
    }
  ],
  "bytecode": "0x60806040526012600260006101000a81548160ff021916908360ff16021790555034801561002c57600080fd5b50610d7a8061003c6000396000f3fe608060405234801561001057600080fd5b50600436106100a95760003560e01c8063313ce56711610071578063313ce5671461017a57806342966c681461019857806370a08231146101b457806395d89b41146101e4578063a9059cbb14610202578063dd62ed3e14610232576100a9565b806306fdde03146100ae578063095ea7b3146100cc57806318160ddd146100fc57806323b872dd1461011a57806327e235e31461014a575b600080fd5b6100b6610262565b6040516100c391906109ce565b60405180910390f35b6100e660048036038101906100e19190610a89565b6102f0565b6040516100f39190610ae4565b60405180910390f35b6101046103e2565b6040516101119190610b0e565b60405180910390f35b610134600480360381019061012f9190610b29565b6103e8565b6040516101419190610ae4565b60405180910390f35b610164600480360381019061015f9190610b7c565b610622565b6040516101719190610b0e565b60405180910390f35b61018261063a565b60405161018f9190610bc5565b60405180910390f35b6101b260048036038101906101ad9190610be0565b61064d565b005b6101ce60048036038101906101c99190610b7c565b610725565b6040516101db9190610b0e565b60405180910390f35b6101ec61076e565b6040516101f991906109ce565b60405180910390f35b61021c60048036038101906102179190610a89565b6107fc565b6040516102299190610ae4565b60405180910390f35b61024c60048036038101906102479190610c0d565b610919565b6040516102599190610b0e565b60405180910390f35b6000805461026f90610c7c565b80601f016020809104026020016040519081016040528092919081815260200182805461029b90610c7c565b80156102e85780601f106102bd576101008083540402835291602001916102e8565b820191906000526020600020905b8154815290600101906020018083116102cb57829003601f168201915b505050505081565b600081600560003373ffffffffffffffffffffffffffffffffffffffff1673ffffffffffffffffffffffffffffffffffffffff16815260200190815260200160002060008573ffffffffffffffffffffffffffffffffffffffff1673ffffffffffffffffffffffffffffffffffffffff168152602001908152602001600020819055508273ffffffffffffffffffffffffffffffffffffffff163373ffffffffffffffffffffffffffffffffffffffff167f8c5be1e5ebec7d5bd14f71427d1e84f3dd0314c0f7b2291e5b200ac8c7c3b925846040516103d09190610b0e565b60405180910390a36001905092915050565b60035481565b600081600560008673ffffffffffffffffffffffffffffffffffffffff1673ffffffffffffffffffffffffffffffffffffffff16815260200190815260200160002060003373ffffffffffffffffffffffffffffffffffffffff1673ffffffffffffffffffffffffffffffffffffffff16815260200190815260200160002054101561047357600080fd5b81600560008673ffffffffffffffffffffffffffffffffffffffff1673ffffffffffffffffffffffffffffffffffffffff16815260200190815260200160002060003373ffffffffffffffffffffffffffffffffffffffff1673ffffffffffffffffffffffffffffffffffffffff16815260200190815260200160002060008282546104ff9190610cdc565b9250508190555081600460008573ffffffffffffffffffffffffffffffffffffffff1673ffffffffffffffffffffffffffffffffffffffff16815260200190815260200160002060008282546105559190610d10565b9250508190555081600460008673ffffffffffffffffffffffffffffffffffffffff1673ffffffffffffffffffffffffffffffffffffffff16815260200190815260200160002060008282546105ab9190610cdc565b925050819055508273ffffffffffffffffffffffffffffffffffffffff168473ffffffffffffffffffffffffffffffffffffffff167fddf252ad1be2c89b69c2b068fc378daa952ba7f163c4a11628f55a4df523b3ef8460405161060f9190610b0e565b60405180910390a3600190509392505050565b60046020528060005260406000206000915090505481565b600260009054906101000a900460ff1681565b80600460003373ffffffffffffffffffffffffffffffffffffffff1673ffffffffffffffffffffffffffffffffffffffff168152602001908152602001600020600082825461069c9190610cdc565b9250508190555080600360008282546106b59190610cdc565b92505081905550600073ffffffffffffffffffffffffffffffffffffffff163373ffffffffffffffffffffffffffffffffffffffff167fddf252ad1be2c89b69c2b068fc378daa952ba7f163c4a11628f55a4df523b3ef8360405161071a9190610b0e565b60405180910390a350565b6000600460008373ffffffffffffffffffffffffffffffffffffffff1673ffffffffffffffffffffffffffffffffffffffff168152602001908152602001600020549050919050565b6001805461077b90610c7c565b80601f01602080910402602001604051908101604052809291908181526020018280546107a790610c7c565b80156107f45780601f106107c9576101008083540402835291602001916107f4565b820191906000526020600020905b8154815290600101906020018083116107d757829003601f168201915b505050505081565b600081600460003373ffffffffffffffffffffffffffffffffffffffff1673ffffffffffffffffffffffffffffffffffffffff168152602001908152602001600020600082825461084d9190610cdc565b9250508190555081600460008573ffffffffffffffffffffffffffffffffffffffff1673ffffffffffffffffffffffffffffffffffffffff16815260200190815260200160002060008282546108a39190610d10565b925050819055508273ffffffffffffffffffffffffffffffffffffffff163373ffffffffffffffffffffffffffffffffffffffff167fddf252ad1be2c89b69c2b068fc378daa952ba7f163c4a11628f55a4df523b3ef846040516109079190610b0e565b60405180910390a36001905092915050565b6005602052816000526040600020602052806000526040600020600091509150505481565b600081519050919050565b600082825260208201905092915050565b60005b8381101561097857808201518184015260208101905061095d565b60008484015250505050565b6000601f19601f8301169050919050565b60006109a08261093e565b6109aa8185610949565b93506109ba81856020860161095a565b6109c381610984565b840191505092915050565b600060208201905081810360008301526109e88184610995565b905092915050565b600080fd5b600073ffffffffffffffffffffffffffffffffffffffff82169050919050565b6000610a20826109f5565b9050919050565b610a3081610a15565b8114610a3b57600080fd5b50565b600081359050610a4d81610a27565b92915050565b6000819050919050565b610a6681610a53565b8114610a7157600080fd5b50565b600081359050610a8381610a5d565b92915050565b60008060408385031215610aa057610a9f6109f0565b5b6000610aae85828601610a3e565b9250506020610abf85828601610a74565b9150509250929050565b60008115159050919050565b610ade81610ac9565b82525050565b6000602082019050610af96000830184610ad5565b92915050565b610b0881610a53565b82525050565b6000602082019050610b236000830184610aff565b92915050565b600080600060608486031215610b4257610b416109f0565b5b6000610b5086828701610a3e565b9350506020610b6186828701610a3e565b9250506040610b7286828701610a74565b9150509250925092565b600060208284031215610b9257610b916109f0565b5b6000610ba084828501610a3e565b91505092915050565b600060ff82169050919050565b610bbf81610ba9565b82525050565b6000602082019050610bda6000830184610bb6565b92915050565b600060208284031215610bf657610bf56109f0565b5b6000610c0484828501610a74565b91505092915050565b60008060408385031215610c2457610c236109f0565b5b6000610c3285828601610a3e565b9250506020610c4385828601610a3e565b9150509250929050565b7f4e487b7100000000000000000000000000000000000000000000000000000000600052602260045260246000fd5b60006002820490506001821680610c9457607f821691505b602082108103610ca757610ca6610c4d565b5b50919050565b7f4e487b7100000000000000000000000000000000000000000000000000000000600052601160045260246000fd5b6000610ce782610a53565b9150610cf283610a53565b9250828203905081811115610d0a57610d09610cad565b5b92915050565b6000610d1b82610a53565b9150610d2683610a53565b9250828201905080821115610d3e57610d3d610cad565b5b9291505056fea26469706673582212202e2945d4594ef574e9363f42f62e9b254a07ac68de4f80eeebb3af3f337a13aa64736f6c63430008130033",
  "immutableReferences": {},
  "source": "// SPDX-License-Identifier: MIT\r\npragma solidity ^0.8.19;\r\n\r\nimport \"./IERC20.sol\";\r\n\r\ncontract ERC20 is IERC20 {\r\n  string public name;\r\n  string public symbol;\r\n  uint8 public decimals = 18;\r\n\r\n  uint public override totalSupply;\r\n  mapping(address => uint) public balances;\r\n  mapping(address => mapping(address => uint)) public override allowance;\r\n\r\n  function balanceOf(address account) external view override returns (uint) {\r\n    return balances[account];\r\n  }\r\n\r\n  function transfer(\r\n    address recipient,\r\n    uint amount\r\n  ) external override returns (bool) {\r\n    balances[msg.sender] -= amount;\r\n    balances[recipient] += amount;\r\n    emit Transfer(msg.sender, recipient, amount);\r\n    return true;\r\n  }\r\n\r\n  function approve(\r\n    address spender,\r\n    uint amount\r\n  ) external override returns (bool) {\r\n    allowance[msg.sender][spender] = amount;\r\n    emit Approval(msg.sender, spender, amount);\r\n    return true;\r\n  }\r\n\r\n  function transferFrom(\r\n    address sender,\r\n    address recipient,\r\n    uint amount\r\n  ) external override returns (bool) {\r\n    require(allowance[sender][msg.sender] >= amount);\r\n    allowance[sender][msg.sender] -= amount;\r\n    balances[recipient] += amount;\r\n    balances[sender] -= amount;\r\n    emit Transfer(sender, recipient, amount);\r\n    return true;\r\n  }\r\n\r\n  function mint(uint amount) internal {\r\n    balances[msg.sender] += amount;\r\n    totalSupply += amount;\r\n    emit Transfer(address(0), msg.sender, amount);\r\n  }\r\n\r\n  function burn(uint amount) external {\r\n    balances[msg.sender] -= amount;\r\n    totalSupply -= amount;\r\n    emit Transfer(msg.sender, address(0), amount);\r\n  }\r\n}\r\n",
  "sourcePath": "C:\\Users\\kawonlee\\Documents\\GitHub\\blockchain777\\230309\\contracts\\ERC20.sol",
  "compiler": {
    "name": "solc",
    "version": "0.8.19+commit.7dd6d404.Emscripten.clang"
  },
  "schemaVersion": "3.4.13",
  "updatedAt": "2023-03-09T03:28:33.982Z",
  "devdoc": {
    "kind": "dev",
    "methods": {},
    "version": 1
  },
  "userdoc": {
    "kind": "user",
    "methods": {},
    "version": 1
  }
}