{
  "contractName": "Vote",
  "abi": [
    {
      "inputs": [
        {
          "internalType": "string[]",
          "name": "candidateNames",
          "type": "string[]"
        }
      ],
      "stateMutability": "nonpayable",
      "type": "constructor"
    },
    {
      "anonymous": false,
      "inputs": [
        {
          "indexed": false,
          "internalType": "string",
          "name": "candidate",
          "type": "string"
        },
        {
          "indexed": false,
          "internalType": "uint256",
          "name": "votes",
          "type": "uint256"
        }
      ],
      "name": "Voted",
      "type": "event"
    },
    {
      "inputs": [
        {
          "internalType": "uint256",
          "name": "",
          "type": "uint256"
        }
      ],
      "name": "candidateList",
      "outputs": [
        {
          "internalType": "string",
          "name": "",
          "type": "string"
        }
      ],
      "stateMutability": "view",
      "type": "function",
      "constant": true
    },
    {
      "inputs": [
        {
          "internalType": "string",
          "name": "",
          "type": "string"
        }
      ],
      "name": "votesReceived",
      "outputs": [
        {
          "internalType": "uint256",
          "name": "",
          "type": "uint256"
        }
      ],
      "stateMutability": "view",
      "type": "function",
      "constant": true
    },
    {
      "inputs": [
        {
          "internalType": "string",
          "name": "candidate",
          "type": "string"
        }
      ],
      "name": "totalVotesFor",
      "outputs": [
        {
          "internalType": "uint256",
          "name": "",
          "type": "uint256"
        }
      ],
      "stateMutability": "view",
      "type": "function",
      "constant": true
    },
    {
      "inputs": [
        {
          "internalType": "string",
          "name": "candidate",
          "type": "string"
        }
      ],
      "name": "voteForCandidate",
      "outputs": [],
      "stateMutability": "nonpayable",
      "type": "function"
    },
    {
      "inputs": [],
      "name": "candidates",
      "outputs": [
        {
          "internalType": "string[]",
          "name": "",
          "type": "string[]"
        }
      ],
      "stateMutability": "view",
      "type": "function",
      "constant": true
    }
  ],
  "bytecode": "0x60806040523480156200001157600080fd5b5060405162001266380380620012668339818101604052810190620000379190620003d3565b80600090805190602001906200004f92919062000057565b505062000756565b828054828255906000526020600020908101928215620000a4579160200282015b82811115620000a35782518290816200009291906200066f565b509160200191906001019062000078565b5b509050620000b39190620000b7565b5090565b5b80821115620000db5760008181620000d19190620000df565b50600101620000b8565b5090565b508054620000ed906200045e565b6000825580601f1062000101575062000122565b601f01602090049060005260206000209081019062000121919062000125565b5b50565b5b808211156200014057600081600090555060010162000126565b5090565b6000604051905090565b600080fd5b600080fd5b600080fd5b6000601f19601f8301169050919050565b7f4e487b7100000000000000000000000000000000000000000000000000000000600052604160045260246000fd5b620001a8826200015d565b810181811067ffffffffffffffff82111715620001ca57620001c96200016e565b5b80604052505050565b6000620001df62000144565b9050620001ed82826200019d565b919050565b600067ffffffffffffffff82111562000210576200020f6200016e565b5b602082029050602081019050919050565b600080fd5b600080fd5b600067ffffffffffffffff8211156200024957620002486200016e565b5b62000254826200015d565b9050602081019050919050565b60005b838110156200028157808201518184015260208101905062000264565b60008484015250505050565b6000620002a46200029e846200022b565b620001d3565b905082815260208101848484011115620002c357620002c262000226565b5b620002d084828562000261565b509392505050565b600082601f830112620002f057620002ef62000158565b5b8151620003028482602086016200028d565b91505092915050565b6000620003226200031c84620001f2565b620001d3565b9050808382526020820190506020840283018581111562000348576200034762000221565b5b835b818110156200039657805167ffffffffffffffff81111562000371576200037062000158565b5b808601620003808982620002d8565b855260208501945050506020810190506200034a565b5050509392505050565b600082601f830112620003b857620003b762000158565b5b8151620003ca8482602086016200030b565b91505092915050565b600060208284031215620003ec57620003eb6200014e565b5b600082015167ffffffffffffffff8111156200040d576200040c62000153565b5b6200041b84828501620003a0565b91505092915050565b600081519050919050565b7f4e487b7100000000000000000000000000000000000000000000000000000000600052602260045260246000fd5b600060028204905060018216806200047757607f821691505b6020821081036200048d576200048c6200042f565b5b50919050565b60008190508160005260206000209050919050565b60006020601f8301049050919050565b600082821b905092915050565b600060088302620004f77fffffffffffffffffffffffffffffffffffffffffffffffffffffffffffffffff82620004b8565b620005038683620004b8565b95508019841693508086168417925050509392505050565b6000819050919050565b6000819050919050565b6000620005506200054a62000544846200051b565b62000525565b6200051b565b9050919050565b6000819050919050565b6200056c836200052f565b620005846200057b8262000557565b848454620004c5565b825550505050565b600090565b6200059b6200058c565b620005a881848462000561565b505050565b5b81811015620005d057620005c460008262000591565b600181019050620005ae565b5050565b601f8211156200061f57620005e98162000493565b620005f484620004a8565b8101602085101562000604578190505b6200061c6200061385620004a8565b830182620005ad565b50505b505050565b600082821c905092915050565b6000620006446000198460080262000624565b1980831691505092915050565b60006200065f838362000631565b9150826002028217905092915050565b6200067a8262000424565b67ffffffffffffffff8111156200069657620006956200016e565b5b620006a282546200045e565b620006af828285620005d4565b600060209050601f831160018114620006e75760008415620006d2578287015190505b620006de858262000651565b8655506200074e565b601f198416620006f78662000493565b60005b828110156200072157848901518255600182019150602085019450602081019050620006fa565b868310156200074157848901516200073d601f89168262000631565b8355505b6001600288020188555050505b505050505050565b610b0080620007666000396000f3fe608060405234801561001057600080fd5b50600436106100575760003560e01c80634a3bf3771461005c5780636f0470aa1461008c5780638d4b44d9146100aa578063b13c744b146100da578063e89927ef1461010a575b600080fd5b610076600480360381019061007191906105b9565b610126565b604051610083919061061b565b60405180910390f35b610094610160565b6040516100a19190610777565b60405180910390f35b6100c460048036038101906100bf91906105b9565b610239565b6040516100d1919061061b565b60405180910390f35b6100f460048036038101906100ef91906107c5565b610267565b604051610101919061083c565b60405180910390f35b610124600480360381019061011f91906105b9565b610313565b005b6000610131826103b4565b61013a57600080fd5b60018260405161014a919061089a565b9081526020016040518091039020549050919050565b60606000805480602002602001604051908101604052809291908181526020016000905b828210156102305783829060005260206000200180546101a3906108e0565b80601f01602080910402602001604051908101604052809291908181526020018280546101cf906108e0565b801561021c5780601f106101f15761010080835404028352916020019161021c565b820191906000526020600020905b8154815290600101906020018083116101ff57829003601f168201915b505050505081526020019060010190610184565b50505050905090565b6001818051602081018201805184825260208301602085012081835280955050505050506000915090505481565b6000818154811061027757600080fd5b906000526020600020016000915090508054610292906108e0565b80601f01602080910402602001604051908101604052809291908181526020018280546102be906108e0565b801561030b5780601f106102e05761010080835404028352916020019161030b565b820191906000526020600020905b8154815290600101906020018083116102ee57829003601f168201915b505050505081565b61031c816103b4565b61032557600080fd5b60018082604051610336919061089a565b908152602001604051809103902060008282546103539190610940565b925050819055507f82ea01a4479f27996bbe8de24f4c8d962035fe2f32a2b130c8c9ca593ab91aa88160018360405161038c919061089a565b9081526020016040518091039020546040516103a9929190610974565b60405180910390a150565b600080600090505b60008054905081101561045457826040516020016103da919061089a565b6040516020818303038152906040528051906020012060008281548110610404576104036109a4565b5b9060005260206000200160405160200161041e9190610a6b565b604051602081830303815290604052805190602001200361044357600191505061045a565b8061044d90610a82565b90506103bc565b50600090505b919050565b6000604051905090565b600080fd5b600080fd5b600080fd5b600080fd5b6000601f19601f8301169050919050565b7f4e487b7100000000000000000000000000000000000000000000000000000000600052604160045260246000fd5b6104c68261047d565b810181811067ffffffffffffffff821117156104e5576104e461048e565b5b80604052505050565b60006104f861045f565b905061050482826104bd565b919050565b600067ffffffffffffffff8211156105245761052361048e565b5b61052d8261047d565b9050602081019050919050565b82818337600083830152505050565b600061055c61055784610509565b6104ee565b90508281526020810184848401111561057857610577610478565b5b61058384828561053a565b509392505050565b600082601f8301126105a05761059f610473565b5b81356105b0848260208601610549565b91505092915050565b6000602082840312156105cf576105ce610469565b5b600082013567ffffffffffffffff8111156105ed576105ec61046e565b5b6105f98482850161058b565b91505092915050565b6000819050919050565b61061581610602565b82525050565b6000602082019050610630600083018461060c565b92915050565b600081519050919050565b600082825260208201905092915050565b6000819050602082019050919050565b600081519050919050565b600082825260208201905092915050565b60005b8381101561069c578082015181840152602081019050610681565b60008484015250505050565b60006106b382610662565b6106bd818561066d565b93506106cd81856020860161067e565b6106d68161047d565b840191505092915050565b60006106ed83836106a8565b905092915050565b6000602082019050919050565b600061070d82610636565b6107178185610641565b93508360208202850161072985610652565b8060005b85811015610765578484038952815161074685826106e1565b9450610751836106f5565b925060208a0199505060018101905061072d565b50829750879550505050505092915050565b600060208201905081810360008301526107918184610702565b905092915050565b6107a281610602565b81146107ad57600080fd5b50565b6000813590506107bf81610799565b92915050565b6000602082840312156107db576107da610469565b5b60006107e9848285016107b0565b91505092915050565b600082825260208201905092915050565b600061080e82610662565b61081881856107f2565b935061082881856020860161067e565b6108318161047d565b840191505092915050565b600060208201905081810360008301526108568184610803565b905092915050565b600081905092915050565b600061087482610662565b61087e818561085e565b935061088e81856020860161067e565b80840191505092915050565b60006108a68284610869565b915081905092915050565b7f4e487b7100000000000000000000000000000000000000000000000000000000600052602260045260246000fd5b600060028204905060018216806108f857607f821691505b60208210810361090b5761090a6108b1565b5b50919050565b7f4e487b7100000000000000000000000000000000000000000000000000000000600052601160045260246000fd5b600061094b82610602565b915061095683610602565b925082820190508082111561096e5761096d610911565b5b92915050565b6000604082019050818103600083015261098e8185610803565b905061099d602083018461060c565b9392505050565b7f4e487b7100000000000000000000000000000000000000000000000000000000600052603260045260246000fd5b60008190508160005260206000209050919050565b600081546109f5816108e0565b6109ff818661085e565b94506001821660008114610a1a5760018114610a2f57610a62565b60ff1983168652811515820286019350610a62565b610a38856109d3565b60005b83811015610a5a57815481890152600182019150602081019050610a3b565b838801955050505b50505092915050565b6000610a7782846109e8565b915081905092915050565b6000610a8d82610602565b91507fffffffffffffffffffffffffffffffffffffffffffffffffffffffffffffffff8203610abf57610abe610911565b5b60018201905091905056fea26469706673582212202d2e7af5bdbfe3b794766c94e55e44e5950ec219b297000cb192a502557a9e3c64736f6c63430008130033",
  "immutableReferences": {},
  "source": "// SPDX-License-Identifier: MIT\r\npragma solidity ^0.8.18;\r\n\r\ncontract Vote {\r\n  string[] public candidateList;\r\n  mapping(string => uint) public votesReceived;\r\n  event Voted(string candidate, uint votes);\r\n\r\n  constructor(string[] memory candidateNames) {\r\n    candidateList = candidateNames;\r\n  }\r\n\r\n  function validCandidate(string memory candidate) private view returns (bool) {\r\n    for (uint i = 0; i < candidateList.length; ++i) {\r\n      if (\r\n        keccak256(abi.encodePacked(candidateList[i])) ==\r\n        keccak256(abi.encodePacked(candidate))\r\n      ) return true;\r\n    }\r\n    return false;\r\n  }\r\n\r\n  function totalVotesFor(string memory candidate) public view returns (uint) {\r\n    require(validCandidate(candidate));\r\n    return votesReceived[candidate];\r\n  }\r\n\r\n  function voteForCandidate(string memory candidate) public {\r\n    require(validCandidate(candidate));\r\n    votesReceived[candidate] += 1;\r\n    emit Voted(candidate, votesReceived[candidate]);\r\n  }\r\n\r\n  function candidates() public view returns (string[] memory) {\r\n    return candidateList;\r\n  }\r\n}\r\n",
  "sourcePath": "C:\\Users\\kawonlee\\Documents\\GitHub\\blockchain777\\230307\\back\\contracts\\Vote.sol",
  "compiler": {
    "name": "solc",
    "version": "0.8.19+commit.7dd6d404.Emscripten.clang"
  },
  "schemaVersion": "3.4.13",
  "updatedAt": "2023-03-07T03:04:41.443Z",
  "networkType": "ethereum",
  "devdoc": {
    "kind": "dev",
    "methods": {},
    "version": 1
  },
  "userdoc": {
    "kind": "user",
    "methods": {},
    "version": 1
  }
}